:1000000012C02AC029C028C027C026C025C024C0CD
:1000100023C022C021C020C01FC01EC01DC01CC0E4
:100020001BC01AC019C011241FBECFEDCDBF10E0F8
:10003000A0E6B0E0EAEEF3E002C005900D92A4362F
:10004000B107D9F710E0A4E6B0E001C01D92A738CF
:10005000B107E1F77BD1C7C1D3CF87B3836C87BB2F
:10006000BD98C59A8DB18A618DB9C09AC19808951D
:100070008FB9769A769903C0689A769BFDCF8FB137
:10008000089593E09A95F1F70000C09893E09A954F
:10009000F1F70000EDDF83E08A95F1F700008FEFC4
:1000A000E7DF93E09A95F1F70000C09A0895CF92A8
:1000B000DF92EF92FF920F931F93CF93DF93182F4E
:1000C000062F6A01E22E813009F4005E83E08A95F2
:1000D000F1F70000C09883E08A95F1F70000802FC7
:1000E000C7DF83E08A95F1F70000FF241E141F0488
:1000F000F4F4C0E0D0E0112369F4003A59F08FEF36
:10010000B7DFFE01EB59FF4F808383E08A95F1F75B
:10011000000009C0F601EC0FFD1F8081A9DF83E01C
:100120008A95F1F700002196CE15DF0524F3C09AD9
:1001300085E690E0DF91CF911F910F91FF90EF90B6
:10014000DF90CF9008951F93CF93DF93CDB7DEB7A5
:10015000C550CDBF87EA91E60197F1F700C00000D6
:1001600011E0198381E061E0AE014F5F5F4F21E054
:100170009EDF8FE2898381E064E0AE014F5F5F4FD5
:1001800021E095DF198381E062E0AE014F5F5F4FB0
:1001900021E08DDF83E0898381E063E0AE014F5F82
:1001A0005F4F21E084DF198381E065E0AE014F5F9E
:1001B0005F4F21E07CDF87E0898381E066E0AE016C
:1001C0004F5F5F4F21E073DF12E119831A831B83B6
:1001D0001C831D8381E06AE0AE014F5F5F4F25E025
:1001E00066DF19831A831B831C831D8381E060E112
:1001F000AE014F5F5F4F25E05ADF85E0898381E0E4
:1002000061E1AE014F5F5F4F21E051DF8FE18983F4
:1002100081E060E0AE014F5F5F4F21E048DF87EA99
:1002200091E60197F1F700C00000CB5FCDBFDF91F1
:10023000CF911F910895CF93DF93CDB7DEB7C5500F
:10024000CDBF83EC99E00197F1F700C0000081E099
:10025000898365E0AE014F5F5F4F21E028DF87E0D3
:10026000898381E066E0AE014F5F5F4F21E01FDFD1
:1002700082E189838A838B838C838D8381E060E133
:10028000AE014F5F5F4F25E012DF85E0898381E09B
:1002900061E1AE014F5F5F4F21E009DF8EE18983AD
:1002A00081E060E0AE014F5F5F4F21E000DF83EC53
:1002B00099E00197F1F700C00000CB5FCDBFDF915F
:1002C000CF91089583E08A95F1F70000C09883E00C
:1002D0008A95F1F7000087E2CBDE83E08A95F1F79B
:1002E000000080E7C5DE83E08A95F1F70000C09A40
:1002F0000895C19A87E893E10197F1F700C00000E3
:10030000C1980895CF93DF93EC0180E061EEAE01D8
:1003100020E0CDDE80E060EAAE0125E0C8DE83ECBF
:1003200099E00197F1F700C00000C19A87E893E1D6
:100330000197F1F700C00000C19883EC99E00197A4
:10034000F1F700C00000DF91CF9108958D9A8C9A4B
:10035000899ABA9ABA9ABB9ABC9A949AC29A959870
:10036000919AC39AC49879DEEEDE959A8FE39DE068
:10037000A3E081509040A040E1F700C000009598B4
:10038000109264009FDFB5DF87E07BDE86FF0CC044
:10039000409185005091860080E061E625E087DE8F
:1003A0009093860080938500E0918500F09186000F
:1003B0008181833919F4949AC29A9598E0918500C5
:1003C000F09186008181843919F4949AC298959AA3
:1003D000E0918500F09186008181882389F6959AC5
:0A03E000C49A9498CDCFF894FFCF93
:0403EA0000949300E8
:00000001FF
